:020000040800F2
:1000000000200020150600086106000861060008AF
:1000100000000000000000000000000000000000E0
:100020000000000000000000000000006106000861
:100030000000000000000000610600082D0200081A
:1000400061060008610600086106000861060008F4
:1000500061060008610600086106000861060008E4
:1000600061060008610600086106000861060008D4
:1000700061060008610600086106000861060008C4
:100080006106000861060008000000006106000823
:1000900061060008610600086106000861060008A4
:1000A0006106000861060008610600086106000894
:1000B0006106000800000000610600080000000062
:1000C0005FF808F180B582B000AF78600A1CFB1CB5
:1000D0001A70FB1C1B78002B06D0084B074A51698D
:1000E0007A680A435A6106E0044B044A5269796807
:1000F000C9430A405A61BD4602B080BD00100240AB
:10010000B0B582B000AF021C3960FB1D1A70FB1D38
:100110001B787F2B32D93049FB1D1B781A1C0F230B
:100120001340083B98082C4AFB1D1B781C1C0F230E
:100130002340083B9B0806339B00D3185B68FA1DDD
:100140001278141C03222240D200FF24251C954063
:100150002A1CD2431A403B689C01FF231C40FB1D14
:100160001B781D1C03232B40DB00251C9D402B1CF2
:100170001A43831D9B00CB185A6029E0174BFA1DC8
:10018000127852B292081549F81D007840B28008E2
:10019000C03080004158F81D0078041C0320204026
:1001A000C000FF24251C8540281CC0430840396836
:1001B0008C01FF210C40F91D09780D1C03212940F9
:1001C000C900251C8D40291C0143C0329200D1502A
:1001D000BD4602B0B0BDC04600ED00E000E100E069
:1001E00080B582B000AF78607A680E4B9A4201D930
:1001F000012312E00C4B7A681202120A013A5A608B
:1002000001235B42181C0321FFF77AFF064B0022F3
:100210009A60054B07221A600023181CBD4602B0E5
:1002200080BDC046FFFFFF0010E000E080B500AFDA
:10023000034B1B685A1C024B1A60BD4680BDC0466A
:100240001400002080B584B000AF7860074B1B68B5
:10025000FB6000E0C046054B1A68FB68D21A7B6859
:100260009A42F7D3BD4604B080BDC04614000020BA
:1002700080B582B000AF0A1CFB1D011C1970BB1DAC
:100280001A709023DB05181C3C2100F04BFB9023D7
:10029000DA05BB1D1B78101C01211A1C00F050FB55
:1002A0009023DB05181C022100F02EFBFB1D1B78A0
:1002B0007F229343DBB29022D205101C20211A1C0E
:1002C00000F03EFBFB1D1A7840231340DBB2902266
:1002D000D205101C10211A1C00F032FBFB1D1A78ED
:1002E00020231340DBB29022D205101C08211A1CD7
:1002F00000F026FBFB1D1A7810231340DBB290227E
:10030000D205101C04211A1C00F01AFB9023DB05F7
:10031000181C022100F006FB9023DB05181C0221AB
:1003200000F0F2FAFB1D1A7808231340DBB290228A
:10033000D205101C20211A1C00F002FBFB1D1A78AC
:1003400004231340DBB29022D205101C10211A1C8A
:1003500000F0F6FAFB1D1A7802231340DBB290225C
:10036000D205101C08211A1C00F0EAFAFB1D1A78AD
:1003700001231340DBB29022D205101C04211A1C69
:1003800000F0DEFA9023DB05181C022100F0CAFA07
:100390000120FFF757FFBD4602B080BD80B584B095
:1003A00000AF78603B1C0F3300221A703B1C0E33E9
:1003B00001221A7010E03B1C0F331B785BB27A6885
:1003C000D3181A783B1C0E331A703B1C0F331A7863
:1003D0003B1C0F3301321A703B1C0E331B785BB28F
:1003E000002BE8D13B1C0F331B78013BDBB2181C00
:1003F000BD4604B080BDC04690B585B000AF786002
:10040000FB1C1970BB1C1A703C1C0E347B68181C3A
:10041000FFF7C4FF031C23703B1C0E331B780F2B0C
:1004200001D9FD2350E0FB1C1A783B1C0E331B78CE
:100430001021CB1A9A4201DDFF2345E0BB1C1B783B
:10044000012B05D0BB1C1B78022B01D0FE233BE007
:10045000BB1C1B78012B0AD1FB1C1B78802252424B
:100460001343DBB2181C0021FFF702FF0DE0FB1C59
:100470001B784033DBB2DBB2802252421343DBB243
:10048000DBB2181C0021FFF7F3FE3B1C0F330022E8
:100490001A7010E03B1C0F331B787A68D3181B7856
:1004A000181C0121FFF7E4FE3B1C0F331A783B1C9C
:1004B0000F3301321A703A1C0F323B1C0E33127884
:1004C0001B789A42E6D300235BB2181CBD4605B0E8
:1004D00090BDC04680B500AF01200021FFF7C8FEE7
:1004E0000120FFF7AFFEBD4680BDC04680B582B09B
:1004F00000AF80239B02181C0121FFF7E3FD424B54
:100500001B68181CFA23990000F032FA031C181C0F
:10051000FFF766FE3D4B3F221A603C4B01221A71E9
:100520003A4B00229A71394B0022DA71374B002284
:100530005A719023DA05354B101C191C00F048F94C
:100540009023DB05181C3D2100F0ECF99023DB051E
:10055000181C022100F0D8F93220FFF773FE20208A
:100560000021FFF785FE0520FFF76CFE2820002103
:10057000FFF77EFE0120FFF765FE06200021FFF752
:1005800077FE0120FFF75EFEFFF7A4FF0C2000219D
:10059000FFF76EFE0120FFF755FE1D4B181C0021D2
:1005A0000122FFF729FFFB1D00221A707B1D01228B
:1005B0001A70BB1D01221A70BB1D1978FB1DFA1D94
:1005C00012788A181A70FB1D1B78032B03D8FB1DA9
:1005D0001B78002B05D1BB1D1B785B42DAB2BB1D1B
:1005E0001A70FFF777FF0A49FB1D1A787B1D1B78ED
:1005F000081C111C1A1CFFF7FFFEFA235B00181CD5
:10060000FFF720FED8E7C0460000002018000020B9
:10061000100A00080C488546002103E00B4B5B588C
:10062000435004310A480B4B42189A42F6D30A4A07
:1006300002E0002313600432084B9A42F9D300F021
:1006400011F8FFF753FFFEE700200020200A000802
:1006500000000020140000201400002020000020D2
:10066000FEE7000080B500AF1B4B1B4A126801215A
:100670000A431A60184B184A5168184A0A405A60CF
:10068000154B154A1168164A0A401A60124B124A55
:100690001168144A0A401A600F4B0F4A5168124AF7
:1006A0000A405A600C4B0C4AD26A0F218A43DA6224
:1006B000094B094A116B0D4A0A401A63064B064A58
:1006C000526B01218A435A63034B00229A6000F067
:1006D0000FF8BD4680BDC046001002400CB8FFF8C0
:1006E000FFFFF6FEFFFFFBFFFFFFC0FFACFEFFFFBB
:1006F00080B582B000AF00237B6000233B60314BAC
:10070000304A1268802149020A431A602D4B1A6848
:1007100080239B0213403B607B6801337B603B6816
:10072000002B04D17A68A023DB019A42EED1254B3D
:100730001A6880239B02134002D001233B6001E032
:1007400000233B603B68012B38D11F4B11221A60FC
:100750001C4B1C4A52685A601A4B1A4A52685A601B
:10076000184B184A5168194A0A405A60154B154AE5
:100770005268882149030A435A60124B114A126891
:10078000802149040A431A60C0460E4B1A68802330
:100790009B041340F9D00B4B0A4A526803218A4349
:1007A0005A60084B074A526802210A435A60C04601
:1007B000044B5A680C231340082BF9D1BD4602B0F4
:1007C00080BDC0460010024000200240FFFFC0FF75
:1007D00080B586B000AF7860396000237B6100236C
:1007E0003B610023FB6000237B6185E07B69012284
:1007F000101C9840031C3B613B681B683A6913401E
:10080000FB60FA683B699A4273D13B681B79012B04
:1008100003D03B681B79022B38D17B689B687A69CF
:1008200052000321081C9040021CD2431A407B68EE
:100830009A607B689A683B685B79191C7B695B00EE
:10084000081C9840031C1A437B689A607B689B884D
:100850009BB27A6992B20121081C9040021C92B2AC
:10086000D24392B213409AB27B689A807B689B888D
:100870009AB23B689B79191C7B699BB2081C984013
:10088000031C9BB213439AB27B689A807B681B68F7
:100890007A6952000321081C9040021CD2431A407E
:1008A0007B681A607B681A683B681B79191C7B6936
:1008B0005B00081C9840031C1A437B681A607B6825
:1008C000DB687A6992B252000321081C9040021C36
:1008D000D2431A407B68DA607B68DA683B68DB7970
:1008E000191C7B695B00081C9840031C1A437B6839
:1008F000DA607B6901337B617B690F2B00D875E778
:10090000BD4606B080BDC04680B582B000AF7860FD
:100910000A1CBB1C1A80BB1C1A887B689A61BD46E6
:1009200002B080BD80B582B000AF78600A1CBB1CED
:100930001A807B68BA1C12881A85BD4602B080BD39
:1009400080B582B000AF7860BB1C19807B1C1A7028
:100950007B1C1B78002B04D0BB1C1A887B689A6117
:1009600003E07B68BA1C12881A85BD4602B080BDC0
:10097000002934D00123002210B488422CD3012452
:100980002407A14204D2814202D209011B01F8E7E7
:10099000E400A14204D2814202D249005B00F8E7A0
:1009A000884201D3401A1A434C08A04202D3001BCC
:1009B0005C0822438C08A04202D3001B9C082243FF
:1009C000CC08A04202D3001BDC082243002803D03D
:1009D0001B0901D00909E3E7101C10BC704700286F
:1009E00001D00020C04307B4024802A14018029081
:1009F00003BDC046190000000029F0D003B5FFF781
:100A0000B9FF0EBC4243891A1847C0467047C0461A
:100A100048656C6C6F20576F726C64210000000099
:100A2000006CDC0200000000000000000102030472
:040A300006070809A4
:0400000508000000EF
:00000001FF
