:020000040800F2
:1000000000200020CD010008190200081902000894
:1000100000000000000000000000000000000000E0
:1000200000000000000000000000000019020008AD
:10003000000000000000000019020008E1000008B4
:100040001902000819020008190200081902000824
:100050001902000819020008190200081902000814
:100060001902000819020008190200081902000804
:1000700019020008190200081902000819020008F4
:100080001902000819020008000000001902000807
:1000900019020008190200081902000819020008D4
:1000A00019020008190200081902000819020008C4
:1000B00019020008000000001902000800000000FA
:1000C0005FF808F1002904D0044B5A6910435861C5
:1000D00003E0024B5A6982435A61704700100240A4
:1000E00008B500F09BF800F0B9F8064A1178012332
:1000F0004B401370012B03D1131C526801325A601C
:1001000008BDC0461800002082B0084B5A68019212
:100110005A68019BD31A984206D90449C0464A68D6
:10012000019BD31A8342F9D302B070471800002014
:1001300010B5204B1868FA21C90000F0EFFA02024E
:10014000120A013A1C4B5A601C4A106A0002000A4B
:10015000C02109060143116200249C6007221A6035
:1001600000F0BAF90C20002100F088F80120FFF718
:10017000CBFF13480021012200F0F2F809200E21E4
:100180000122002300F02EF90E4800210222022352
:1001900000F028F9FA20C000FFF7B6FF00F092F94E
:1001A000094B5C601C1C606800210122002300F0E8
:1001B00019F9F8E71400002010E000E000ED00E07D
:1001C0007C0800082BFBFFFF180000200C48854628
:1001D000002103E00B4B5B58435004310A480B4BA2
:1001E00042189A42F6D30A4A02E00023136004320E
:1001F000084B9A42F9D300F003FAFFF799FFFEE7A4
:10020000002000208C0800080000002018000020BA
:10021000180000202C000020FEE7000008B50D4A61
:1002200013780133DBB213700B4A1278D2B29342C7
:1002300005D29020C005402100F066FA04E090202D
:10024000C005402100F062FA024B1A780F210A40E3
:100250001A7008BD200000200000002010B5064CD8
:1002600062789020C005802100F052FA6278012364
:100270005340637010BDC0460000002070B5051CDF
:100280000E1C9024E405201C3C2100F03FFA201CA9
:100290000121321C00F03CFA201C022100F034FA4B
:1002A0007F232A1C9A43201C202100F031FA40228F
:1002B0002A40201C102100F02BFA20222A40201C6A
:1002C000082100F025FA10222A40201C042100F009
:1002D0001FFA201C022100F019FA201C022100F054
:1002E00013FA08222A40201C202100F011FA0422CF
:1002F0002A40201C102100F00BFA02222A40201C68
:10030000082100F005FA01222A40201C042100F0F7
:10031000FFF9201C022100F0F9F90120FFF7F4FE9B
:1003200070BDC04600235AB2825C0133DBB2002AA2
:10033000F9D1013BD8B27047012909D90139002907
:100340000CD0021C0023424301338B42FBD104E05A
:10035000012903D04842484100E0101C7047C046C4
:10036000F0B5474680B4051C0F1C9046FFF7DAFF36
:10037000061C041E0F2C27D810231B1A9F4225DCB5
:100380004346013B012B23D84346012B05D1802056
:1003900038430021FFF772FF07E0403780204042DA
:1003A0003843C0B20021FFF769FF002C12D02C1C8B
:1003B0000135013EF6B2AD1920780121FFF75EFF4D
:1003C0000134AC42F8D107E0FD2006E0FF2004E054
:1003D000FE2002E0002000E0002040B204BC904675
:1003E000F0BDC046F0B557464E464546E0B4051C44
:1003F0000E1C90469A4600229146002802DA454299
:10040000012399460024E7B20A20211CFFF794FF3C
:10041000854202DB01340A2CF5D17BB20F22D31ABC
:100420009E4242DC4346013B012B40D84246012A12
:1004300005D1802030430021FFF720FF07E0403640
:10044000802040423043C0B20021FFF717FF4B46E7
:10045000002B03D02D200121FFF710FF5646002E60
:1004600009DD002430200121FFF708FF0134E4B248
:1004700062B2B242F6DB013FFCB23A0619D461B275
:100480000A20FFF759FF011C281C00F095F90A21EA
:1004900000F0E8F9081C3030C0B20121FFF7EEFE91
:1004A000631EDCB21A06EAD505E0FF2004E0FE2058
:1004B00002E0002000E0002040B21CBC90469946BB
:1004C000A246F0BD08B501200021FFF7D7FE0120AC
:1004D000FFF71AFE08BDC04610B58020800201213A
:1004E000FFF7F0FD1849FF230B6001230B71002378
:1004F0008B71CB714B719024E405201C00F0B2F895
:10050000201C3D2100F002F9201C022100F0FCF823
:100510003220FFF7F9FD20200021FFF7AFFE052074
:10052000FFF7F2FD28200021FFF7A8FE0120FFF7CA
:10053000EBFD06200021FFF7A1FE0120FFF7E4FDFF
:10054000FFF7C0FF10BDC0462400002082B000238A
:1005500001930093274B1968802252020A431A60C4
:10056000191C80229202A020C0010B681340009346
:10057000019B01330193009B002B02D1019B83421D
:10058000F3D11C4B1B689A0302D50123009301E0B1
:1005900000230093009B012B2AD11122164B1A60D5
:1005A000144B5A685A605A685A605968134A0A408C
:1005B0005A605968882252030A435A601968802297
:1005C00052040A431A60191C802292040B681342D9
:1005D000FCD0084B5A6803218A435A6059680222AA
:1005E0000A435A60191C0C224B681340082BFBD19C
:1005F00002B070470010024000200240FFFFC0FF21
:1006000008B5124B19680122114319605868104946
:100610000140596018680F490140196018680E4977
:100620000140196058680D4901405960D96A0F208E
:100630008143D962186B0A4901401963596B914390
:10064000596300229A60FFF781FF08BD0010024045
:100650000CB8FFF8FFFFF6FEFFFFFBFFFFFFC0FF38
:10066000ACFEFFFFF0B54F464646C0B40022002363
:1006700001260327341C9C400D682540A5423BD130
:100680000C79013C012C1DD884683D1C9540AC437D
:10069000846085684C7994402C4384608488A046AB
:1006A0001C04240CA146351CA5404446AC43848060
:1006B0008488A0468D792C1C4D46AC4045462C4381
:1006C000A4B2848004683D1C9540AC430460056876
:1006D0000C7994402C430460C468A0461D04ED0BC3
:1006E0003C1CAC40A44644466546AC43C460C56867
:1006F000CC7994402C43C46001330232102BB9D121
:100700000CBC90469946F0BD8161704701857047E9
:10071000002A01D0816100E001857047002934D0B2
:100720000123002210B488422CD301242407A142C3
:1007300004D2814202D209011B01F8E7E400A14280
:1007400004D2814202D249005B00F8E7884201D31B
:10075000401A1A434C08A04202D3001B5C082243F3
:100760008C08A04202D3001B9C082243CC08A04264
:1007700002D3001BDC082243002803D01B0901D050
:100780000909E3E7101C10BC7047002801D00020C5
:10079000C04307B4024802A14018029003BDC046FE
:1007A000D90000000029F0D003B5FFF7B9FF0EBC57
:1007B0004243891A1847C046002941D010B4041C8E
:1007C0004C40A44601230022002900D549420028BC
:1007D00000D5404288422CD301242407A14204D2F0
:1007E000814202D209011B01F8E7E400A14204D2D0
:1007F000814202D249005B00F8E7884201D3401AE7
:100800001A434C08A04202D3001B5C0822438C0808
:10081000A04202D3001B9C082243CC08A04202D372
:10082000001BDC082243002803D01B0901D0090962
:10083000E3E7101C6446002C00D5404210BC704712
:10084000002806D003DB0020C043400801E08020E0
:10085000000607B4024802A14018029003BDC0463A
:10086000190000000029EBD003B5FFF7A7FF0EBC6D
:100870004243891A1847C0467047C04648656C6CA9
:0C0880006F20776F726C64210000000094
:10088C001001000000000000000000000102030441
:08089C0006070809006CDC02EC
:0400000508000000EF
:00000001FF
