:020000040800F2
:1000000000200020510300089D0300089D03000804
:1000100000000000000000000000000000000000E0
:100020000000000000000000000000009D03000828
:1000300000000000000000009D0300082D020008E1
:100040009D0300089D0300089D0300089D03000810
:100050009D0300089D0300089D0300089D03000800
:100060009D0300089D0300089D0300089D030008F0
:100070009D0300089D0300089D0300089D030008E0
:100080009D0300089D030008000000009D03000878
:100090009D0300089D0300089D0300089D030008C0
:1000A0009D0300089D0300089D0300089D030008B0
:1000B0009D030008000000009D03000800000000F0
:1000C0005FF808F180B582B000AF78600A1CFB1CB5
:1000D0001A70FB1C1B78002B06D0084B074A51698D
:1000E0007A680A435A6106E0044B044A5269796807
:1000F000C9430A405A61BD4602B080BD00100240AB
:10010000B0B582B000AF021C3960FB1D1A70FB1D38
:100110001B787F2B32D93049FB1D1B781A1C0F230B
:100120001340083B98082C4AFB1D1B781C1C0F230E
:100130002340083B9B0806339B00D3185B68FA1DDD
:100140001278141C03222240D200FF24251C954063
:100150002A1CD2431A403B689C01FF231C40FB1D14
:100160001B781D1C03232B40DB00251C9D402B1CF2
:100170001A43831D9B00CB185A6029E0174BFA1DC8
:10018000127852B292081549F81D007840B28008E2
:10019000C03080004158F81D0078041C0320204026
:1001A000C000FF24251C8540281CC0430840396836
:1001B0008C01FF210C40F91D09780D1C03212940F9
:1001C000C900251C8D40291C0143C0329200D1502A
:1001D000BD4602B0B0BDC04600ED00E000E100E069
:1001E00080B582B000AF78607A680E4B9A4201D930
:1001F000012312E00C4B7A681202120A013A5A608B
:1002000001235B42181C0321FFF77AFF064B0022F3
:100210009A60054B07221A600023181CBD4602B0E5
:1002200080BDC046FFFFFF0010E000E080B500AFDA
:1002300000F0B6F800F0DEF8084B1B7801225340BE
:10024000DAB2064B1A70054B1B78012B04D1044B14
:100250001B685A1C024B1A60BD4680BD1C00002062
:100260001800002080B584B000AF7860074B1B6891
:10027000FB6000E0C046054B1A68FB68D21A7B6839
:100280009A42F7D3BD4604B080BDC0461800002096
:1002900080B582B000AF274B1B68181CFA23D90029
:1002A00000F0F4FD031C181CFFF79AFF00F0B8F8EB
:1002B0000C20002100F0FCF80120FFF7D3FF1E4BBB
:1002C000181C0021012200F0E1F909200E21012271
:1002D000002300F0C5FA194B181C0021022202234A
:1002E00000F0BEFA164B181C0A210222032300F06C
:1002F0006DFBFA231B01181CFFF7B4FF00F034FC60
:10030000104B00221A60104B7B607B68181C002188
:100310000122032300F05AFB78680C4900F05EFFCD
:10032000031C7B60FA235B00181CFFF79BFF00F0A7
:100330001BFCEAE7040000204C1500082BFBFFFF24
:100340005BD3FC3D18000020AE47813F666686BF48
:100350000C488546002103E00B4B5B5843500431A9
:100360000A480B4B42189A42F6D30A4A02E000238D
:1003700013600432084B9A42F9D300F001FCFFF7F6
:1003800087FFFEE7002000209C15000800000020E9
:1003900018000020180000202C000020FEE70000BC
:1003A00080B500AF114B1B780133DAB20F4B1A70D6
:1003B0000E4B1A780E4B1B78DBB29A4206D2902372
:1003C000DB05181C402100F02DFD05E09023DB0526
:1003D000181C402100F034FD044B1A780F23134001
:1003E000DAB2024B1A70BD4680BDC0462000002024
:1003F0000000002080B500AF084B1B789022D2058A
:10040000101C80211A1C00F029FD044B1B780122CE
:100410005340DAB2014B1A70BD4680BD0100002086
:1004200080B500AF80239B02181C0121FFF74AFE14
:100430001E4BFF221A601D4B01221A711B4B00221A
:100440009A711A4B0022DA71184B00225A719023CC
:10045000DA05164B101C191C00F048FC9023DB0534
:10046000181C3D2100F0ECFC9023DB05181C022138
:1004700000F0D8FC3220FFF7F5FE2020002100F02C
:1004800017F80520FFF7EEFE2820002100F010F8F5
:100490000120FFF7E7FE0620002100F009F8012007
:1004A000FFF7E0FE00F060FBBD4680BD24000020A9
:1004B00080B582B000AF0A1CFB1D011C1970BB1D6A
:1004C0001A709023DB05181C3C2100F0B9FC902326
:1004D000DA05BB1D1B78101C01211A1C00F0BEFCA4
:1004E0009023DB05181C022100F09CFCFB1D1B78EF
:1004F0007F229343DBB29022D205101C20211A1CCC
:1005000000F0ACFCFB1D1A7840231340DBB29022B4
:10051000D205101C10211A1C00F0A0FCFB1D1A783B
:1005200020231340DBB29022D205101C08211A1C94
:1005300000F094FCFB1D1A7810231340DBB29022CC
:10054000D205101C04211A1C00F088FC9023DB0546
:10055000181C022100F074FC9023DB05181C0221FA
:1005600000F060FCFB1D1A7808231340DBB29022D8
:10057000D205101C20211A1C00F070FCFB1D1A78FB
:1005800004231340DBB29022D205101C10211A1C48
:1005900000F064FCFB1D1A7802231340DBB29022AA
:1005A000D205101C08211A1C00F058FCFB1D1A78FB
:1005B00001231340DBB29022D205101C04211A1C27
:1005C00000F04CFC9023DB05181C022100F038FCE5
:1005D0000120FFF747FEBD4602B080BD80B584B064
:1005E00000AF78603B1C0F3300221A703B1C0E33A7
:1005F00001221A7010E03B1C0F331B785BB27A6843
:10060000D3181A783B1C0E331A703B1C0F331A7820
:100610003B1C0F3301321A703B1C0E331B785BB24C
:10062000002BE8D13B1C0F331B78013BDBB2181CBD
:10063000BD4604B080BDC04680B584B000AF7860D0
:1006400039607B68BB603B68012B10D90023FB60DD
:1006500006E07B68BA6853437B60FB680133FB604C
:100660003B685A1EFB689A42F3D87B680AE03B68F5
:10067000012B01D17B6805E03B68002B01D10123F0
:1006800000E00023181CBD4604B080BD90B585B0C5
:1006900000AF7860FB1C1970BB1C1A703C1C0E3438
:1006A0007B68181CFFF79AFF031C23703B1C0E335A
:1006B0001B780F2B01D9FD2350E0FB1C1A783B1C43
:1006C0000E331B780F21CB1A9A4201DDFF2345E040
:1006D000BB1C1B78012B05D0BB1C1B78022B01D047
:1006E000FE233BE0BB1C1B78012B0AD1FB1C1B78B3
:1006F000802252421343DBB2181C0021FFF7D8FEC0
:100700000DE0FB1C1B784033DBB2DBB2802252428F
:100710001343DBB2DBB2181C0021FFF7C9FE3B1C00
:100720000F3300221A7010E03B1C0F331B787A68DD
:10073000D3181B78181C0121FFF7BAFE3B1C0F339E
:100740001A783B1C0F3301321A703A1C0F323B1CD3
:100750000E3312781B789A42E6D300235BB2181C42
:10076000BD4605B090BDC04680B582B000AFFB1D50
:100770001870BB1D19707B1D1A70BB1D1B780E2BCA
:1007800001D9FF232DE07B1D1B78012B05D07B1D9C
:100790001B78022B01D0FE2323E07B1D1B78012B4D
:1007A0000AD1BB1D1B78802252421343DBB2181CB6
:1007B0000021FFF77DFE0DE0BB1D1B784033DBB24F
:1007C000DBB2802252421343DBB2DBB2181C0021A1
:1007D000FFF76EFEFB1D1B78181C0121FFF768FE5A
:1007E00000235BB2181CBD4602B080BD80B584B04A
:1007F00000AF78603B1C0F3300221A703B1C0E3395
:1008000000221A701FE03B1C0E331B780A20191CB3
:10081000FFF712FF021C7B689A420DDC3B1C0F3372
:100820003A1C0E3212781A703B1C0E331A783B1C9D
:100830000E3301321A7006E03B1C0F333A1C0E32A5
:1008400012781A7004E03B1C0E331B78092BDAD99E
:100850003B1C0F331B78181CBD4604B080BDC0463E
:1008600080B584B000AF7860081C111C1A1CFB1CFA
:100870001870BB1C19707B1C1A703B1C0F330022B4
:100880001A703B1C0D3300221A703B1C0E330022E1
:100890001A707B68002B06DA7B685B427B603B1C2E
:1008A0000E3301221A707B68181CFFF79FFF031C90
:1008B0001A1C3B1C0D331A70FB1C1A783B1C0D33A1
:1008C0001B785BB20F21CB1A9A4201DDFF2378E03F
:1008D000BB1C1B78012B05D0BB1C1B78022B01D045
:1008E000FE236EE0BB1C1B78012B0AD1FB1C1B787E
:1008F000802252421343DBB2181C0021FFF7D8FDBF
:100900000DE0FB1C1B784033DBB2DBB2802252428D
:100910001343DBB2DBB2181C0021FFF7C9FD3B1CFF
:100920000E331B785BB2002B03D02D200121FFF783
:10093000BFFD3B1C0F3300221A700AE0302001215A
:10094000FFF7B6FD3B1C0F331A783B1C0F33013207
:100950001A703B1C0F3300229A567B1C1B789A425C
:10096000ECDB3B1C0D331B78013BDAB23B1C0F3335
:100970001A7020E03B1C0F331B785BB20A20191C55
:10098000FFF75AFE031C7868191C00F0CDFA031C0F
:10099000181C0A2100F01EFB0B1CDBB23033DBB24B
:1009A000181C0121FFF784FD3B1C0F331A783B1CF8
:1009B0000F33013A1A703B1C0F331B787F2BD9D9A8
:1009C00000235BB2181CBD4604B080BD90B589B051
:1009D00000AF7860081C111C1A1CFB1C1870BB1C93
:1009E00019707B1C1A707B1C1B780A20191CFFF7DE
:1009F00023FE031CBB613B1C173300221A7078686E
:100A0000002100F005FB031C002B12D07B68802224
:100A1000120653407B60FB1C1A78BB1C1B782D20F0
:100A2000111C1A1CFFF7A0FEFB1C1A78FB1C0132DC
:100A30001A70786800F0FCFC031C3B613B69002BDA
:100A40000ED1FB1C1A78BB1C1B783020111C1A1C01
:100A5000FFF78AFEFB1C1A78FB1C01321A701AE0A1
:100A60003C1C17343B69181CFFF7C0FE031C2370A5
:100A70003969FB1C1A78BB1C1B78081C111C1A1C3A
:100A80000023FFF7EDFEFB1CF91C3A1C1732097816
:100A900012788A181A707B1C1B78002B5FD0FB1C05
:100AA0001A78BB1C1B782E20111C1A1CFFF75CFE49
:100AB000FB1C1A78FB1C01321A70B86900F0D8FCD4
:100AC000031C7868191C00F089FB031C7B607868A4
:100AD00000F0AEFC031CFB60FA683B69B9694B434C
:100AE000D31AFB603C1C1734FB68181CFFF77EFE12
:100AF000031C23703A1C17327B1C12781B789A4215
:100B000022D23B1C1F333A1C173212781A7014E0A1
:100B1000FB1C1A78BB1C1B783020111C1A1CFFF719
:100B200023FEFB1C1A78FB1C01321A703B1C1F337E
:100B30001A783B1C1F3301321A703A1C1F327B1C7F
:100B400012781B789A42E3D3F968FB1C1A78BB1C15
:100B50001B78081C111C1A1C0023FFF781FE181CAF
:100B6000BD4609B090BDC04680B500AF0120002150
:100B7000FFF79EFC0120FFF775FBBD4680BDC04618
:100B800080B500AF1B4B1B4A126801210A431A6053
:100B9000184B184A5168184A0A405A60154B154AB2
:100BA0001168164A0A401A60124B124A1168144A18
:100BB0000A401A600F4B0F4A5168124A0A405A60A5
:100BC0000C4B0C4AD26A0F218A43DA62094B094A5C
:100BD000116B0D4A0A401A63064B064A526B0121FB
:100BE0008A435A63034B00229A6000F00FF8BD4617
:100BF00080BDC046001002400CB8FFF8FFFFF6FEB3
:100C0000FFFFFBFFFFFFC0FFACFEFFFF80B582B020
:100C100000AF00237B6000233B60314B304A1268F9
:100C2000802149020A431A602D4B1A6880239B02D7
:100C300013403B607B6801337B603B68002B04D131
:100C40007A68A023DB019A42EED1254B1A688023F3
:100C50009B02134002D001233B6001E000233B6074
:100C60003B68012B38D11F4B11221A601C4B1C4AC8
:100C700052685A601A4B1A4A52685A60184B184AFE
:100C80005168194A0A405A60154B154A5268882122
:100C900049030A435A60124B114A126880214904E1
:100CA0000A431A60C0460E4B1A6880239B04134007
:100CB000F9D00B4B0A4A526803218A435A60084B09
:100CC000074A526802210A435A60C046044B5A68D8
:100CD0000C231340082BF9D1BD4602B080BDC0469D
:100CE0000010024000200240FFFFC0FF80B586B028
:100CF00000AF7860396000237B6100233B610023F3
:100D0000FB6000237B6185E07B690122101C984019
:100D1000031C3B613B681B683A691340FB60FA683F
:100D20003B699A4273D13B681B79012B03D03B6826
:100D30001B79022B38D17B689B687A6952000321AA
:100D4000081C9040021CD2431A407B689A607B6862
:100D50009A683B685B79191C7B695B00081C9840AA
:100D6000031C1A437B689A607B689B889BB27A69F4
:100D700092B20121081C9040021C92B2D24392B25E
:100D800013409AB27B689A807B689B889AB23B68D2
:100D90009B79191C7B699BB2081C9840031C9BB271
:100DA00013439AB27B689A807B681B687A69520009
:100DB0000321081C9040021CD2431A407B681A6031
:100DC0007B681A683B681B79191C7B695B00081CEF
:100DD0009840031C1A437B681A607B68DB687A6959
:100DE00092B252000321081C9040021CD2431A40C8
:100DF0007B68DA607B68DA683B68DB79191C7B69A1
:100E00005B00081C9840031C1A437B68DA607B690E
:100E100001337B617B690F2B00D875E7BD4606B0B7
:100E200080BDC04680B582B000AF78600A1CBB1C94
:100E30001A80BB1C1A887B689A61BD4602B080BDCF
:100E400080B582B000AF78600A1CBB1C1A807B683A
:100E5000BA1C12881A85BD4602B080BD80B582B02A
:100E600000AF7860BB1C19807B1C1A707B1C1B7840
:100E7000002B04D0BB1C1A887B689A6103E07B6856
:100E8000BA1C12881A85BD4602B080BD002934D034
:100E90000123002210B488422CD301242407A1424C
:100EA00004D2814202D209011B01F8E7E400A14209
:100EB00004D2814202D249005B00F8E7884201D3A4
:100EC000401A1A434C08A04202D3001B5C0822437C
:100ED0008C08A04202D3001B9C082243CC08A042ED
:100EE00002D3001BDC082243002803D01B0901D0D9
:100EF0000909E3E7101C10BC7047002801D000204E
:100F0000C04307B4024802A14018029003BDC04686
:100F1000D90000000029F0D003B5FFF7B9FF0EBCDF
:100F20004243891A1847C046002941D010B4041C16
:100F30004C40A44601230022002900D54942002844
:100F400000D5404288422CD301242407A14204D278
:100F5000814202D209011B01F8E7E400A14204D258
:100F6000814202D249005B00F8E7884201D3401A6F
:100F70001A434C08A04202D3001B5C0822438C0891
:100F8000A04202D3001B9C082243CC08A04202D3FB
:100F9000001BDC082243002803D01B0901D00909EB
:100FA000E3E7101C6446002C00D5404210BC70479B
:100FB000002806D003DB0020C043400801E0802069
:100FC000000607B4024802A14018029003BDC046C3
:100FD000190000000029EBD003B5FFF7A7FF0EBCF6
:100FE0004243891A1847C0467047C0468446081CC9
:100FF0006146FFE71FB500F0A5F8002801D40021E5
:10100000C8421FBD10B500F02BF84042013010BDA2
:1010100010B500F097F8002801DB002010BD01207A
:1010200010BDC04610B500F08DF8002801DD00208D
:1010300010BD012010BDC04610B500F03BF80028DF
:1010400001DC002010BD012010BDC04610B500F02D
:1010500031F8002801DA002010BD012010BDC04683
:101060004A02430270B55C0A550A43004A001B0E4F
:10107000C60F120EC90FFF2B05D0FF2A08D0012082
:1010800093420BD070BD0120002CFBD1FF2AF6D17A
:101090000120002DF6D101209342F3D1AC42F1D1D1
:1010A0008E4205D0002BEDD1201C441EA041E9E763
:1010B0000020E7E74A024302F0B55C0A550A430004
:1010C0004A001B0EC60F120EC90FFF2B31D0FF2A8C
:1010D00034D0002B16D1604260418446002A14D0DF
:1010E000002820D18E4217D1934215DC04DBAC429C
:1010F00012D80020AC4212D270427041404201230B
:1011000018430CE0002AEDD194466F426F416046CF
:10111000002805D1002FE5D0704201231843F0BD0F
:101120000020002FFBD14842484140420123184390
:10113000F5E7002CCBD002204042F0E7002DC8D0CC
:10114000F9E7C0464A024302F0B55C0A550A43007B
:101150004A001B0EC60F120EC90FFF2B27D0FF2A05
:1011600029D0002B10D0002A15D194466F426F4130
:101170006046002815D00020002F04D14842484185
:10118000404201231843F0BD604260418446002A7A
:10119000ECD00028F2D18E4211D0704201231843C6
:1011A000F1E7002FF7D0704201231843EBE702204C
:1011B000002CE8D1D3E70220002DE4D1D1E79342FF
:1011C000EBDC04DBAC42E8D80020AC42DBD270425E
:1011D0007041404201231843D5E7C046F0B55F4651
:1011E00056464D464446F0B44402460083B00F1CB8
:1011F000640A360EC50F002E41D0FF2E22D0802368
:101200001B0400201C43E4007F3E82468046391CBC
:101210004B007F02C90F7F0A1B0E8B463BD0FF2B72
:1012200034D0802212041743FF007F3B00215A462E
:101230006A40019252460A430F2A63D87A489200C4
:1012400082589746002C3FD10822022392469846A6
:10125000DDE70195404602282AD1019A0125154073
:10126000FF2300246402DB05600AED0718432843CE
:1012700003B03CBC90469946A246AB46F0BD002C5C
:1012800027D10420012282469046C0E7391C4A1E1D
:1012900091410231CBE70121002FC8D0381C00F06A
:1012A00037F9431F9F4076235B421B1A0021BEE79C
:1012B000032800D1AEE001284FD1019842461040EA
:1012C000C5B200230024CDE70C2303209A468046B4
:1012D0009DE7201C00F01CF97626431F9C407642B7
:1012E0000023361A9A46984691E780240025E403A5
:1012F000FF23B7E75B463C1C01938846AAE73C1CEA
:101300008846A7E7250C24043A0C240C3F04F61861
:101310003F0C211C231C794353436F435543FB1857
:101320000A0C9B18B1469F4202D980225202AD1886
:1013300009041A04090C521894011B0C611E8C41FB
:10134000920EED181443AD012C43230105D5012263
:1013500063080120144081441C434B467F33002B1B
:101360002DDD600704D00F222240042A00D004346F
:10137000220103D52D4B1C404B468033FE2B17DD3D
:10138000019B01251D400024FF236BE78020C00343
:10139000044208D0074206D1041C3C436402640A9C
:1013A0005D46FF235EE704436402640AFF2359E7B6
:1013B0000198A4010125640ADBB2054052E77E23AF
:1013C0005B424A469B1A1B2B05DD019B01251D40F4
:1013D0000024002346E7221CDA404B469E339C4003
:1013E000231C5C1EA3411343580704D00F221A404C
:1013F000042A00D004335A0105D5019B01251D4064
:10140000002401232EE701989C010125640A054070
:10141000002327E78027FF03019B3C43640201254B
:101420001D40640AFF231DE75C150008FFFFFFF75E
:101430004302590A4300C20F1B0E00207E2B0DDD14
:101440009D2B0CDC802000040143952B0ADC9620A8
:10145000C31AD9404842002A00D1081C7047034BE8
:10146000D018FBE7963B9940F4E7C046FFFFFF7FAB
:1014700010B5041E33D000F04BF89E231B1A962B98
:1014800009DC083884406402640ADBB26402DB05CC
:10149000600A184310BD992B0ADD0522121A211C7F
:1014A000D1400A1C011C1B318C40611E8C4114432D
:1014B000052801DD421F9440144A2240610704D0F0
:1014C0000F210C40042C00D0043251010AD59F2377
:1014D000181AFF2816D09401640AC3B2D6E7002375
:1014E0000024D3E7D208FF2B03D05402640ADBB2F6
:1014F000CCE7002A06D08024E40314436402640A83
:10150000FF23C3E7FF230024C0E7C046FFFFFFFB24
:101510001C2101231B04984201D3000C10391B0A23
:10152000984201D3000A08391B09984201D30009E7
:10153000043902A2105C40187047C046040302023E
:1015400001010101000000000000000048656C6C12
:101550006F20776F726C6421000000000413000894
:10156000FE120008FE120008F412000854120008CF
:1015700054120008EA120008F4120008541200087D
:10158000EA12000854120008F4120008521200086F
:0C15900052120008521200088C130008D0
:10159C0010010000006CDC020000000000000000E4
:0815AC0001020304060708090F
:0400000508000000EF
:00000001FF
