:020000040800F2
:1000000000200020190300086503000865030008AC
:1000100000000000000000000000000000000000E0
:100020000000000000000000000000006503000860
:100030000000000000000000650300082D02000819
:1000400065030008650300086503000865030008F0
:1000500065030008650300086503000865030008E0
:1000600065030008650300086503000865030008D0
:1000700065030008650300086503000865030008C0
:100080006503000865030008000000006503000820
:1000900065030008650300086503000865030008A0
:1000A0006503000865030008650300086503000890
:1000B0006503000800000000650300080000000060
:1000C0005FF808F180B582B000AF78600A1CFB1CB5
:1000D0001A70FB1C1B78002B06D0084B074A51698D
:1000E0007A680A435A6106E0044B044A5269796807
:1000F000C9430A405A61BD4602B080BD00100240AB
:10010000B0B582B000AF021C3960FB1D1A70FB1D38
:100110001B787F2B32D93049FB1D1B781A1C0F230B
:100120001340083B98082C4AFB1D1B781C1C0F230E
:100130002340083B9B0806339B00D3185B68FA1DDD
:100140001278141C03222240D200FF24251C954063
:100150002A1CD2431A403B689C01FF231C40FB1D14
:100160001B781D1C03232B40DB00251C9D402B1CF2
:100170001A43831D9B00CB185A6029E0174BFA1DC8
:10018000127852B292081549F81D007840B28008E2
:10019000C03080004158F81D0078041C0320204026
:1001A000C000FF24251C8540281CC0430840396836
:1001B0008C01FF210C40F91D09780D1C03212940F9
:1001C000C900251C8D40291C0143C0329200D1502A
:1001D000BD4602B0B0BDC04600ED00E000E100E069
:1001E00080B582B000AF78607A680E4B9A4201D930
:1001F000012312E00C4B7A681202120A013A5A608B
:1002000001235B42181C0321FFF77AFF064B0022F3
:100210009A60054B07221A600023181CBD4602B0E5
:1002200080BDC046FFFFFF0010E000E080B500AFDA
:1002300000F09AF800F0C2F8084B1B7801225340F6
:10024000DAB2064B1A70054B1B78012B04D1044B14
:100250001B685A1C024B1A60BD4680BD1C00002062
:100260001800002080B584B000AF7860074B1B6891
:10027000FB6000E0C046054B1A68FB68D21A7B6839
:100280009A42F7D3BD4604B080BDC0461800002096
:1002900080B500AF1C4B1B68181CFA23D90000F076
:1002A000B3FC031C181CFFF79BFF00F09DF80C200B
:1002B000002100F0E1F80120FFF7D4FF134B181CD8
:1002C0000021012200F0C6F909200E21012200239D
:1002D00000F02EFA0E4B181C00210222022300F01F
:1002E00027FAFA23DB00181CFFF7BCFF00F0FAFA2C
:1002F000084B00221A60074B1B68181C00210122C2
:10030000002300F015FAF6E704000020680D00084D
:100310002BFBFFFF180000200C488546002103E05E
:100320000B4B5B58435004310A480B4B42189A421E
:10033000F6D30A4A02E0002313600432084B9A42C3
:10034000F9D300F0DBFAFFF7A3FFFEE7002000205F
:10035000780D000800000020180000201800002080
:100360002C000020FEE7000080B500AF114B1B7889
:100370000133DAB20F4B1A700E4B1A780E4B1B7802
:10038000DBB29A4206D29023DB05181C402100F014
:1003900007FC05E09023DB05181C402100F00EFC53
:1003A000044B1A780F231340DAB2024B1A70BD4681
:1003B00080BDC046200000200000002080B500AFB6
:1003C000084B1B789022D205101C80211A1C00F0CB
:1003D00003FC044B1B7801225340DAB2014B1A7024
:1003E000BD4680BD0100002080B500AF80239B0288
:1003F000181C0121FFF766FE1E4BFF221A601D4BE1
:1004000001221A711B4B00229A711A4B0022DA71D9
:10041000184B00225A719023DA05164B101C191C38
:1004200000F022FB9023DB05181C3D2100F0C6FBE9
:100430009023DB05181C022100F0B2FB3220FFF7ED
:1004400011FF2020002100F017F80520FFF70AFF18
:100450002820002100F010F80120FFF703FF0620FC
:10046000002100F009F80120FFF7FCFE00F03AFA45
:10047000BD4680BD2400002080B582B000AF0A1CBC
:10048000FB1D011C1970BB1D1A709023DB05181C85
:100490003C2100F093FB9023DA05BB1D1B78101C58
:1004A00001211A1C00F098FB9023DB05181C022187
:1004B00000F076FBFB1D1B787F229343DBB290227A
:1004C000D205101C20211A1C00F086FBFB1D1A7897
:1004D00040231340DBB29022D205101C10211A1CBD
:1004E00000F07AFBFB1D1A7820231340DBB2902228
:1004F000D205101C08211A1C00F06EFBFB1D1A7897
:1005000010231340DBB29022D205101C04211A1CC8
:1005100000F062FB9023DB05181C022100F04EFB6B
:100520009023DB05181C022100F03AFBFB1D1A7812
:1005300008231340DBB29022D205101C20211A1C84
:1005400000F04AFBFB1D1A7804231340DBB2902213
:10055000D205101C10211A1C00F03EFBFB1D1A785E
:1005600002231340DBB29022D205101C08211A1C72
:1005700000F032FBFB1D1A7801231340DBB29022FE
:10058000D205101C04211A1C00F026FB9023DB0569
:10059000181C022100F012FB0120FFF763FEBD468C
:1005A00002B080BD80B584B000AF78603B1C0F33D3
:1005B00000221A703B1C0E3301221A7010E03B1C03
:1005C0000F331B785BB27A68D3181A783B1C0E3352
:1005D0001A703B1C0F331A783B1C0F3301321A7010
:1005E0003B1C0E331B785BB2002BE8D13B1C0F3356
:1005F0001B78013BDBB2181CBD4604B080BDC04671
:1006000080B584B000AF786039607B68BB603B68C0
:10061000012B10D90023FB6006E07B68BA685343C6
:100620007B60FB680133FB603B685A1EFB689A42A3
:10063000F3D87B680AE03B68012B01D17B6805E0B9
:100640003B68002B01D1012300E00023181CBD46AC
:1006500004B080BD90B585B000AF7860FB1C197008
:10066000BB1C1A703C1C0E347B68181CFFF79AFFE9
:10067000031C23703B1C0E331B780F2B01D9FD2369
:1006800050E0FB1C1A783B1C0E331B781021CB1A50
:100690009A4201DDFF2345E0BB1C1B78012B05D0EE
:1006A000BB1C1B78022B01D0FE233BE0BB1C1B783C
:1006B000012B0AD1FB1C1B78802252421343DBB270
:1006C000181C0021FFF7D8FE0DE0FB1C1B784033FF
:1006D000DBB2DBB2802252421343DBB2DBB2181C26
:1006E0000021FFF7C9FE3B1C0F3300221A7010E0F7
:1006F0003B1C0F331B787A68D3181B78181C012118
:10070000FFF7BAFE3B1C0F331A783B1C0F33013244
:100710001A703A1C0F323B1C0E3312781B789A4227
:10072000E6D300235BB2181CBD4605B090BDC046A1
:1007300080B584B000AF7860081C111C1A1CFB1C2B
:100740001870BB1C19707B1C1A703B1C0F330022E5
:100750001A703B1C0E3300221A703B1C0D33002212
:100760001A707B68002B06DA7B685B427B603B1C5F
:100770000D3301221A703B1C0F3300221A7020E047
:100780003B1C0F331B785BB20A20191CFFF738FFA4
:10079000021C7B689A420DDC3B1C0E333A1C0F3264
:1007A00012781A703B1C0F331A783B1C0F3301323E
:1007B0001A7006E03B1C0E333A1C0F3212781A7086
:1007C00005E03B1C0F331B785BB2092BD8DDFB1C0B
:1007D0001A783B1C0E331B785BB20F21CB1A9A425E
:1007E00001DDFF2378E0BB1C1B78012B05D0BB1C6F
:1007F0001B78022B01D0FE236EE0BB1C1B78012B63
:100800000AD1FB1C1B78802252421343DBB2181C16
:100810000021FFF731FE0DE0FB1C1B784033DBB2FB
:10082000DBB2802252421343DBB2DBB2181C002140
:10083000FFF722FE3B1C0D331B785BB2002B03D06D
:100840002D200121FFF718FE3B1C0F3300221A70E8
:100850000AE030200121FFF70FFE3B1C0F331A780E
:100860003B1C0F3301321A703B1C0F3300229A5687
:100870007B1C1B789A42ECDB3B1C0E331B78013B44
:10088000DAB23B1C0F331A7020E03B1C0F331B788D
:100890005BB20A20191CFFF7B3FE031C7868191C11
:1008A00000F000FA031C181C0A2100F051FA0B1C7E
:1008B000DBB23033DBB2181C0121FFF7DDFD3B1C3E
:1008C0000F331A783B1C0F33013A1A703B1C0F335D
:1008D0001B787F2BD9D900235BB2181CBD4604B00E
:1008E00080BDC04680B500AF01200021FFF7C4FDE8
:1008F0000120FFF7B7FCBD4680BDC04680B500AF04
:100900001B4B1B4A126801210A431A60184B184AF4
:100910005168184A0A405A60154B154A1168164A20
:100920000A401A60124B124A1168144A0A401A60AF
:100930000F4B0F4A5168124A0A405A600C4B0C4A3E
:10094000D26A0F218A43DA62094B094A116B0D4AB8
:100950000A401A63064B064A526B01218A435A63C6
:10096000034B00229A6000F00FF8BD4680BDC046E0
:10097000001002400CB8FFF8FFFFF6FEFFFFFBFF80
:10098000FFFFC0FFACFEFFFF80B582B000AF0023C9
:100990007B6000233B60314B304A12688021490262
:1009A0000A431A602D4B1A6880239B0213403B6058
:1009B0007B6801337B603B68002B04D17A68A023FD
:1009C000DB019A42EED1254B1A6880239B0213402B
:1009D00002D001233B6001E000233B603B68012B18
:1009E00038D11F4B11221A601C4B1C4A52685A60A6
:1009F0001A4B1A4A52685A60184B184A5168194AD9
:100A00000A405A60154B154A5268882149030A4327
:100A10005A60124B114A1268802149040A431A6035
:100A2000C0460E4B1A6880239B041340F9D00B4B31
:100A30000A4A526803218A435A60084B074A52689F
:100A400002210A435A60C046044B5A680C231340E3
:100A5000082BF9D1BD4602B080BDC046001002404F
:100A600000200240FFFFC0FF80B586B000AF786075
:100A7000396000237B6100233B610023FB6000237E
:100A80007B6185E07B690122101C9840031C3B615F
:100A90003B681B683A691340FB60FA683B699A42FD
:100AA00073D13B681B79012B03D03B681B79022B68
:100AB00038D17B689B687A6952000321081C9040FA
:100AC000021CD2431A407B689A607B689A683B6834
:100AD0005B79191C7B695B00081C9840031C1A4356
:100AE0007B689A607B689B889BB27A6992B201218D
:100AF000081C9040021C92B2D24392B213409AB2A8
:100B00007B689A807B689B889AB23B689B79191CAA
:100B10007B699BB2081C9840031C9BB213439AB29A
:100B20007B689A807B681B687A6952000321081CE5
:100B30009040021CD2431A407B681A607B681A6896
:100B40003B681B79191C7B695B00081C9840031CDF
:100B50001A437B681A607B68DB687A6992B252003C
:100B60000321081C9040021CD2431A407B68DA60C3
:100B70007B68DA683B68DB79191C7B695B00081CC1
:100B80009840031C1A437B68DA607B6901337B6100
:100B90007B690F2B00D875E7BD4606B080BDC04607
:100BA00080B582B000AF78600A1CBB1C1A80BB1CE9
:100BB0001A887B689A61BD4602B080BD80B582B05C
:100BC00000AF78600A1CBB1C1A807B68BA1C1288B4
:100BD0001A85BD4602B080BD80B582B000AF786096
:100BE000BB1C19807B1C1A707B1C1B78002B04D04B
:100BF000BB1C1A887B689A6103E07B68BA1C128868
:100C00001A85BD4602B080BD002934D001230022E0
:100C100010B488422CD301242407A14204D281427B
:100C200002D209011B01F8E7E400A14204D281428B
:100C300002D249005B00F8E7884201D3401A1A4308
:100C40004C08A04202D3001B5C0822438C08A0423F
:100C500002D3001B9C082243CC08A04202D3001BF5
:100C6000DC082243002803D01B0901D00909E3E76F
:100C7000101C10BC7047002801D00020C04307B4EE
:100C8000024802A14018029003BDC046D9000000EE
:100C90000029F0D003B5FFF7B9FF0EBC4243891A13
:100CA0001847C046002941D010B4041C4C40A4464B
:100CB00001230022002900D54942002800D54042E6
:100CC00088422CD301242407A14204D2814202D2BB
:100CD00009011B01F8E7E400A14204D2814202D2DB
:100CE00049005B00F8E7884201D3401A1A434C08D8
:100CF000A04202D3001B5C0822438C08A04202D30E
:100D0000001B9C082243CC08A04202D3001BDC0835
:100D10002243002803D01B0901D00909E3E7101C76
:100D20006446002C00D5404210BC7047002806D015
:100D300003DB0020C043400801E08020000607B428
:100D4000024802A14018029003BDC04619000000ED
:100D50000029EBD003B5FFF7A7FF0EBC4243891A69
:100D60001847C0467047C04648656C6C6F20776F67
:080D7000726C64210000000018
:100D780010010000006CDC02000000000000000010
:080D880001020304060708093B
:0400000508000000EF
:00000001FF
